{
	"data": {
		"bytecode": {
			"linkReferences": {},
			"object": "608060405234801561001057600080fd5b50610351806100206000396000f3fe608060405234801561001057600080fd5b506004361061002b5760003560e01c8063c47f002714610030575b600080fd5b61004a6004803603810190610045919061013e565b61004c565b005b73b23baa05e7ae94f2a7ba1c6122cc90692597f90373ffffffffffffffffffffffffffffffffffffffff1663c47f0027826040518263ffffffff1660e01b815260040161009991906101c0565b600060405180830381600087803b1580156100b357600080fd5b505af11580156100c7573d6000803e3d6000fd5b5050505050565b60006100e16100dc84610207565b6101e2565b9050828152602081018484840111156100fd576100fc6102fb565b5b610108848285610254565b509392505050565b600082601f830112610125576101246102f6565b5b81356101358482602086016100ce565b91505092915050565b60006020828403121561015457610153610305565b5b600082013567ffffffffffffffff81111561017257610171610300565b5b61017e84828501610110565b91505092915050565b600061019282610238565b61019c8185610243565b93506101ac818560208601610263565b6101b58161030a565b840191505092915050565b600060208201905081810360008301526101da8184610187565b905092915050565b60006101ec6101fd565b90506101f88282610296565b919050565b6000604051905090565b600067ffffffffffffffff821115610222576102216102c7565b5b61022b8261030a565b9050602081019050919050565b600081519050919050565b600082825260208201905092915050565b82818337600083830152505050565b60005b83811015610281578082015181840152602081019050610266565b83811115610290576000848401525b50505050565b61029f8261030a565b810181811067ffffffffffffffff821117156102be576102bd6102c7565b5b80604052505050565b7f4e487b7100000000000000000000000000000000000000000000000000000000600052604160045260246000fd5b600080fd5b600080fd5b600080fd5b600080fd5b6000601f19601f830116905091905056fea26469706673582212206ef22df8d5027e4edfbf02eaf69cc2f821519bf160ed7e2e7568c6b5e19f14dd64736f6c63430008060033",
			"opcodes": "PUSH1 0x80 PUSH1 0x40 MSTORE CALLVALUE DUP1 ISZERO PUSH2 0x10 JUMPI PUSH1 0x0 DUP1 REVERT JUMPDEST POP PUSH2 0x351 DUP1 PUSH2 0x20 PUSH1 0x0 CODECOPY PUSH1 0x0 RETURN INVALID PUSH1 0x80 PUSH1 0x40 MSTORE CALLVALUE DUP1 ISZERO PUSH2 0x10 JUMPI PUSH1 0x0 DUP1 REVERT JUMPDEST POP PUSH1 0x4 CALLDATASIZE LT PUSH2 0x2B JUMPI PUSH1 0x0 CALLDATALOAD PUSH1 0xE0 SHR DUP1 PUSH4 0xC47F0027 EQ PUSH2 0x30 JUMPI JUMPDEST PUSH1 0x0 DUP1 REVERT JUMPDEST PUSH2 0x4A PUSH1 0x4 DUP1 CALLDATASIZE SUB DUP2 ADD SWAP1 PUSH2 0x45 SWAP2 SWAP1 PUSH2 0x13E JUMP JUMPDEST PUSH2 0x4C JUMP JUMPDEST STOP JUMPDEST PUSH20 0xB23BAA05E7AE94F2A7BA1C6122CC90692597F903 PUSH20 0xFFFFFFFFFFFFFFFFFFFFFFFFFFFFFFFFFFFFFFFF AND PUSH4 0xC47F0027 DUP3 PUSH1 0x40 MLOAD DUP3 PUSH4 0xFFFFFFFF AND PUSH1 0xE0 SHL DUP2 MSTORE PUSH1 0x4 ADD PUSH2 0x99 SWAP2 SWAP1 PUSH2 0x1C0 JUMP JUMPDEST PUSH1 0x0 PUSH1 0x40 MLOAD DUP1 DUP4 SUB DUP2 PUSH1 0x0 DUP8 DUP1 EXTCODESIZE ISZERO DUP1 ISZERO PUSH2 0xB3 JUMPI PUSH1 0x0 DUP1 REVERT JUMPDEST POP GAS CALL ISZERO DUP1 ISZERO PUSH2 0xC7 JUMPI RETURNDATASIZE PUSH1 0x0 DUP1 RETURNDATACOPY RETURNDATASIZE PUSH1 0x0 REVERT JUMPDEST POP POP POP POP POP JUMP JUMPDEST PUSH1 0x0 PUSH2 0xE1 PUSH2 0xDC DUP5 PUSH2 0x207 JUMP JUMPDEST PUSH2 0x1E2 JUMP JUMPDEST SWAP1 POP DUP3 DUP2 MSTORE PUSH1 0x20 DUP2 ADD DUP5 DUP5 DUP5 ADD GT ISZERO PUSH2 0xFD JUMPI PUSH2 0xFC PUSH2 0x2FB JUMP JUMPDEST JUMPDEST PUSH2 0x108 DUP5 DUP3 DUP6 PUSH2 0x254 JUMP JUMPDEST POP SWAP4 SWAP3 POP POP POP JUMP JUMPDEST PUSH1 0x0 DUP3 PUSH1 0x1F DUP4 ADD SLT PUSH2 0x125 JUMPI PUSH2 0x124 PUSH2 0x2F6 JUMP JUMPDEST JUMPDEST DUP2 CALLDATALOAD PUSH2 0x135 DUP5 DUP3 PUSH1 0x20 DUP7 ADD PUSH2 0xCE JUMP JUMPDEST SWAP2 POP POP SWAP3 SWAP2 POP POP JUMP JUMPDEST PUSH1 0x0 PUSH1 0x20 DUP3 DUP5 SUB SLT ISZERO PUSH2 0x154 JUMPI PUSH2 0x153 PUSH2 0x305 JUMP JUMPDEST JUMPDEST PUSH1 0x0 DUP3 ADD CALLDATALOAD PUSH8 0xFFFFFFFFFFFFFFFF DUP2 GT ISZERO PUSH2 0x172 JUMPI PUSH2 0x171 PUSH2 0x300 JUMP JUMPDEST JUMPDEST PUSH2 0x17E DUP5 DUP3 DUP6 ADD PUSH2 0x110 JUMP JUMPDEST SWAP2 POP POP SWAP3 SWAP2 POP POP JUMP JUMPDEST PUSH1 0x0 PUSH2 0x192 DUP3 PUSH2 0x238 JUMP JUMPDEST PUSH2 0x19C DUP2 DUP6 PUSH2 0x243 JUMP JUMPDEST SWAP4 POP PUSH2 0x1AC DUP2 DUP6 PUSH1 0x20 DUP7 ADD PUSH2 0x263 JUMP JUMPDEST PUSH2 0x1B5 DUP2 PUSH2 0x30A JUMP JUMPDEST DUP5 ADD SWAP2 POP POP SWAP3 SWAP2 POP POP JUMP JUMPDEST PUSH1 0x0 PUSH1 0x20 DUP3 ADD SWAP1 POP DUP2 DUP2 SUB PUSH1 0x0 DUP4 ADD MSTORE PUSH2 0x1DA DUP2 DUP5 PUSH2 0x187 JUMP JUMPDEST SWAP1 POP SWAP3 SWAP2 POP POP JUMP JUMPDEST PUSH1 0x0 PUSH2 0x1EC PUSH2 0x1FD JUMP JUMPDEST SWAP1 POP PUSH2 0x1F8 DUP3 DUP3 PUSH2 0x296 JUMP JUMPDEST SWAP2 SWAP1 POP JUMP JUMPDEST PUSH1 0x0 PUSH1 0x40 MLOAD SWAP1 POP SWAP1 JUMP JUMPDEST PUSH1 0x0 PUSH8 0xFFFFFFFFFFFFFFFF DUP3 GT ISZERO PUSH2 0x222 JUMPI PUSH2 0x221 PUSH2 0x2C7 JUMP JUMPDEST JUMPDEST PUSH2 0x22B DUP3 PUSH2 0x30A JUMP JUMPDEST SWAP1 POP PUSH1 0x20 DUP2 ADD SWAP1 POP SWAP2 SWAP1 POP JUMP JUMPDEST PUSH1 0x0 DUP2 MLOAD SWAP1 POP SWAP2 SWAP1 POP JUMP JUMPDEST PUSH1 0x0 DUP3 DUP3 MSTORE PUSH1 0x20 DUP3 ADD SWAP1 POP SWAP3 SWAP2 POP POP JUMP JUMPDEST DUP3 DUP2 DUP4 CALLDATACOPY PUSH1 0x0 DUP4 DUP4 ADD MSTORE POP POP POP JUMP JUMPDEST PUSH1 0x0 JUMPDEST DUP4 DUP2 LT ISZERO PUSH2 0x281 JUMPI DUP1 DUP3 ADD MLOAD DUP2 DUP5 ADD MSTORE PUSH1 0x20 DUP2 ADD SWAP1 POP PUSH2 0x266 JUMP JUMPDEST DUP4 DUP2 GT ISZERO PUSH2 0x290 JUMPI PUSH1 0x0 DUP5 DUP5 ADD MSTORE JUMPDEST POP POP POP POP JUMP JUMPDEST PUSH2 0x29F DUP3 PUSH2 0x30A JUMP JUMPDEST DUP2 ADD DUP2 DUP2 LT PUSH8 0xFFFFFFFFFFFFFFFF DUP3 GT OR ISZERO PUSH2 0x2BE JUMPI PUSH2 0x2BD PUSH2 0x2C7 JUMP JUMPDEST JUMPDEST DUP1 PUSH1 0x40 MSTORE POP POP POP JUMP JUMPDEST PUSH32 0x4E487B7100000000000000000000000000000000000000000000000000000000 PUSH1 0x0 MSTORE PUSH1 0x41 PUSH1 0x4 MSTORE PUSH1 0x24 PUSH1 0x0 REVERT JUMPDEST PUSH1 0x0 DUP1 REVERT JUMPDEST PUSH1 0x0 DUP1 REVERT JUMPDEST PUSH1 0x0 DUP1 REVERT JUMPDEST PUSH1 0x0 DUP1 REVERT JUMPDEST PUSH1 0x0 PUSH1 0x1F NOT PUSH1 0x1F DUP4 ADD AND SWAP1 POP SWAP2 SWAP1 POP JUMP INVALID LOG2 PUSH5 0x6970667358 0x22 SLT KECCAK256 PUSH15 0xF22DF8D5027E4EDFBF02EAF69CC2F8 0x21 MLOAD SWAP12 CALL PUSH1 0xED PUSH31 0x2E7568C6B5E19F14DD64736F6C634300080600330000000000000000000000 "
		},
		"gasEstimates": {
			"creation": {
				"codeDepositCost": "169800",
				"executionCost": "214",
				"totalCost": "170014"
			},
			"external": {
				"setName(string)": "infinite"
			}
		},
		"methodIdentifiers": {
			"setName(string)": "c47f0027"
		}
	},
	"abi": [
		{
			"inputs": [
				{
					"internalType": "string",
					"name": "_n",
					"type": "string"
				}
			],
			"name": "setName",
			"outputs": [],
			"stateMutability": "nonpayable",
			"type": "function"
		}
	]
}