{
	"data": {
		"bytecode": {
			"linkReferences": {},
			"object": "608060405234801561001057600080fd5b50610198806100206000396000f3fe608060405234801561001057600080fd5b506004361061002b5760003560e01c8063fdda506714610030575b600080fd5b61004a600480360381019061004591906100e3565b61004c565b005b738046085fb6806caa9b19a4cd7b3cd96374dd957373ffffffffffffffffffffffffffffffffffffffff166304412704826040518263ffffffff1660e01b8152600401610099919061011f565b600060405180830381600087803b1580156100b357600080fd5b505af11580156100c7573d6000803e3d6000fd5b5050505050565b6000813590506100dd8161014b565b92915050565b6000602082840312156100f9576100f8610146565b5b6000610107848285016100ce565b91505092915050565b6101198161013a565b82525050565b60006020820190506101346000830184610110565b92915050565b60008115159050919050565b600080fd5b6101548161013a565b811461015f57600080fd5b5056fea2646970667358221220cd44ded6aabf30fb4a03db7c5b3b959901e8b972186b492bebfb80e9d291a51964736f6c63430008060033",
			"opcodes": "PUSH1 0x80 PUSH1 0x40 MSTORE CALLVALUE DUP1 ISZERO PUSH2 0x10 JUMPI PUSH1 0x0 DUP1 REVERT JUMPDEST POP PUSH2 0x198 DUP1 PUSH2 0x20 PUSH1 0x0 CODECOPY PUSH1 0x0 RETURN INVALID PUSH1 0x80 PUSH1 0x40 MSTORE CALLVALUE DUP1 ISZERO PUSH2 0x10 JUMPI PUSH1 0x0 DUP1 REVERT JUMPDEST POP PUSH1 0x4 CALLDATASIZE LT PUSH2 0x2B JUMPI PUSH1 0x0 CALLDATALOAD PUSH1 0xE0 SHR DUP1 PUSH4 0xFDDA5067 EQ PUSH2 0x30 JUMPI JUMPDEST PUSH1 0x0 DUP1 REVERT JUMPDEST PUSH2 0x4A PUSH1 0x4 DUP1 CALLDATASIZE SUB DUP2 ADD SWAP1 PUSH2 0x45 SWAP2 SWAP1 PUSH2 0xE3 JUMP JUMPDEST PUSH2 0x4C JUMP JUMPDEST STOP JUMPDEST PUSH20 0x8046085FB6806CAA9B19A4CD7B3CD96374DD9573 PUSH20 0xFFFFFFFFFFFFFFFFFFFFFFFFFFFFFFFFFFFFFFFF AND PUSH4 0x4412704 DUP3 PUSH1 0x40 MLOAD DUP3 PUSH4 0xFFFFFFFF AND PUSH1 0xE0 SHL DUP2 MSTORE PUSH1 0x4 ADD PUSH2 0x99 SWAP2 SWAP1 PUSH2 0x11F JUMP JUMPDEST PUSH1 0x0 PUSH1 0x40 MLOAD DUP1 DUP4 SUB DUP2 PUSH1 0x0 DUP8 DUP1 EXTCODESIZE ISZERO DUP1 ISZERO PUSH2 0xB3 JUMPI PUSH1 0x0 DUP1 REVERT JUMPDEST POP GAS CALL ISZERO DUP1 ISZERO PUSH2 0xC7 JUMPI RETURNDATASIZE PUSH1 0x0 DUP1 RETURNDATACOPY RETURNDATASIZE PUSH1 0x0 REVERT JUMPDEST POP POP POP POP POP JUMP JUMPDEST PUSH1 0x0 DUP2 CALLDATALOAD SWAP1 POP PUSH2 0xDD DUP2 PUSH2 0x14B JUMP JUMPDEST SWAP3 SWAP2 POP POP JUMP JUMPDEST PUSH1 0x0 PUSH1 0x20 DUP3 DUP5 SUB SLT ISZERO PUSH2 0xF9 JUMPI PUSH2 0xF8 PUSH2 0x146 JUMP JUMPDEST JUMPDEST PUSH1 0x0 PUSH2 0x107 DUP5 DUP3 DUP6 ADD PUSH2 0xCE JUMP JUMPDEST SWAP2 POP POP SWAP3 SWAP2 POP POP JUMP JUMPDEST PUSH2 0x119 DUP2 PUSH2 0x13A JUMP JUMPDEST DUP3 MSTORE POP POP JUMP JUMPDEST PUSH1 0x0 PUSH1 0x20 DUP3 ADD SWAP1 POP PUSH2 0x134 PUSH1 0x0 DUP4 ADD DUP5 PUSH2 0x110 JUMP JUMPDEST SWAP3 SWAP2 POP POP JUMP JUMPDEST PUSH1 0x0 DUP2 ISZERO ISZERO SWAP1 POP SWAP2 SWAP1 POP JUMP JUMPDEST PUSH1 0x0 DUP1 REVERT JUMPDEST PUSH2 0x154 DUP2 PUSH2 0x13A JUMP JUMPDEST DUP2 EQ PUSH2 0x15F JUMPI PUSH1 0x0 DUP1 REVERT JUMPDEST POP JUMP INVALID LOG2 PUSH5 0x6970667358 0x22 SLT KECCAK256 0xCD DIFFICULTY 0xDE 0xD6 0xAA 0xBF ADDRESS 0xFB 0x4A SUB 0xDB PUSH29 0x5B3B959901E8B972186B492BEBFB80E9D291A51964736F6C6343000806 STOP CALLER "
		},
		"gasEstimates": {
			"creation": {
				"codeDepositCost": "81600",
				"executionCost": "129",
				"totalCost": "81729"
			},
			"external": {
				"getBlockNum(bool)": "infinite"
			}
		},
		"methodIdentifiers": {
			"getBlockNum(bool)": "fdda5067"
		}
	},
	"abi": [
		{
			"inputs": [
				{
					"internalType": "bool",
					"name": "_answer",
					"type": "bool"
				}
			],
			"name": "getBlockNum",
			"outputs": [],
			"stateMutability": "nonpayable",
			"type": "function"
		}
	]
}